{
  "contractName": "Election",
  "abi": [
    {
      "inputs": [
        {
          "internalType": "uint256",
          "name": "_time",
          "type": "uint256"
        }
      ],
      "stateMutability": "nonpayable",
      "type": "constructor"
    },
    {
      "anonymous": false,
      "inputs": [
        {
          "indexed": false,
          "internalType": "uint256",
          "name": "id",
          "type": "uint256"
        },
        {
          "indexed": false,
          "internalType": "uint256",
          "name": "voteCount",
          "type": "uint256"
        },
        {
          "indexed": false,
          "internalType": "string",
          "name": "name",
          "type": "string"
        },
        {
          "indexed": false,
          "internalType": "address",
          "name": "owner",
          "type": "address"
        }
      ],
      "name": "CandidateAdded",
      "type": "event"
    },
    {
      "anonymous": false,
      "inputs": [
        {
          "indexed": false,
          "internalType": "uint256",
          "name": "time",
          "type": "uint256"
        }
      ],
      "name": "ElectionDateUpdated",
      "type": "event"
    },
    {
      "anonymous": false,
      "inputs": [
        {
          "indexed": true,
          "internalType": "address",
          "name": "previousOwner",
          "type": "address"
        },
        {
          "indexed": true,
          "internalType": "address",
          "name": "newOwner",
          "type": "address"
        }
      ],
      "name": "OwnershipTransferred",
      "type": "event"
    },
    {
      "anonymous": false,
      "inputs": [
        {
          "indexed": false,
          "internalType": "address",
          "name": "voter",
          "type": "address"
        },
        {
          "indexed": false,
          "internalType": "uint256",
          "name": "candidateId",
          "type": "uint256"
        }
      ],
      "name": "VoteCasted",
      "type": "event"
    },
    {
      "anonymous": false,
      "inputs": [
        {
          "indexed": false,
          "internalType": "address",
          "name": "voter",
          "type": "address"
        }
      ],
      "name": "VoterRegistered",
      "type": "event"
    },
    {
      "inputs": [
        {
          "internalType": "address",
          "name": "",
          "type": "address"
        }
      ],
      "name": "addressToCandidateId",
      "outputs": [
        {
          "internalType": "uint256",
          "name": "",
          "type": "uint256"
        }
      ],
      "stateMutability": "view",
      "type": "function"
    },
    {
      "inputs": [
        {
          "internalType": "uint256",
          "name": "",
          "type": "uint256"
        }
      ],
      "name": "candidates",
      "outputs": [
        {
          "internalType": "uint256",
          "name": "id",
          "type": "uint256"
        },
        {
          "internalType": "uint256",
          "name": "voteCount",
          "type": "uint256"
        },
        {
          "internalType": "string",
          "name": "name",
          "type": "string"
        },
        {
          "internalType": "address",
          "name": "owner",
          "type": "address"
        }
      ],
      "stateMutability": "view",
      "type": "function"
    },
    {
      "inputs": [],
      "name": "candidatesCount",
      "outputs": [
        {
          "internalType": "uint256",
          "name": "",
          "type": "uint256"
        }
      ],
      "stateMutability": "view",
      "type": "function"
    },
    {
      "inputs": [],
      "name": "electionDate",
      "outputs": [
        {
          "internalType": "uint256",
          "name": "",
          "type": "uint256"
        }
      ],
      "stateMutability": "view",
      "type": "function"
    },
    {
      "inputs": [],
      "name": "name",
      "outputs": [
        {
          "internalType": "string",
          "name": "",
          "type": "string"
        }
      ],
      "stateMutability": "view",
      "type": "function"
    },
    {
      "inputs": [],
      "name": "owner",
      "outputs": [
        {
          "internalType": "address",
          "name": "",
          "type": "address"
        }
      ],
      "stateMutability": "view",
      "type": "function"
    },
    {
      "inputs": [],
      "name": "renounceOwnership",
      "outputs": [],
      "stateMutability": "nonpayable",
      "type": "function"
    },
    {
      "inputs": [
        {
          "internalType": "address",
          "name": "newOwner",
          "type": "address"
        }
      ],
      "name": "transferOwnership",
      "outputs": [],
      "stateMutability": "nonpayable",
      "type": "function"
    },
    {
      "inputs": [
        {
          "internalType": "address",
          "name": "",
          "type": "address"
        }
      ],
      "name": "voters",
      "outputs": [
        {
          "internalType": "bool",
          "name": "",
          "type": "bool"
        }
      ],
      "stateMutability": "view",
      "type": "function"
    },
    {
      "inputs": [],
      "name": "votersCount",
      "outputs": [
        {
          "internalType": "uint256",
          "name": "",
          "type": "uint256"
        }
      ],
      "stateMutability": "view",
      "type": "function"
    },
    {
      "inputs": [
        {
          "internalType": "string",
          "name": "_name",
          "type": "string"
        },
        {
          "internalType": "address",
          "name": "_candidate",
          "type": "address"
        }
      ],
      "name": "addCandidate",
      "outputs": [],
      "stateMutability": "nonpayable",
      "type": "function"
    },
    {
      "inputs": [],
      "name": "registerVoter",
      "outputs": [],
      "stateMutability": "nonpayable",
      "type": "function"
    },
    {
      "inputs": [
        {
          "internalType": "uint256",
          "name": "_candidateId",
          "type": "uint256"
        }
      ],
      "name": "castVote",
      "outputs": [],
      "stateMutability": "nonpayable",
      "type": "function"
    }
  ],
  "bytecode": "0x60806040526040518060400160405280600881526020017f456c656374696f6e000000000000000000000000000000000000000000000000815250600190805190602001906200005192919062000190565b503480156200005f57600080fd5b5060405162001b0538038062001b05833981810160405281019062000085919062000257565b6000620000976200018860201b60201c565b9050806000806101000a81548173ffffffffffffffffffffffffffffffffffffffff021916908373ffffffffffffffffffffffffffffffffffffffff1602179055508073ffffffffffffffffffffffffffffffffffffffff16600073ffffffffffffffffffffffffffffffffffffffff167f8be0079c531659141344cd1fd0a4f28419497f9722a3daafe3b4186f6b6457e060405160405180910390a3504281116200017a576040517f08c379a00000000000000000000000000000000000000000000000000000000081526004016200017190620002aa565b60405180910390fd5b8060078190555050620003b5565b600033905090565b8280546200019e90620002e7565b90600052602060002090601f016020900481019282620001c257600085556200020e565b82601f10620001dd57805160ff19168380011785556200020e565b828001600101855582156200020e579182015b828111156200020d578251825591602001919060010190620001f0565b5b5090506200021d919062000221565b5090565b5b808211156200023c57600081600090555060010162000222565b5090565b60008151905062000251816200039b565b92915050565b6000602082840312156200026a57600080fd5b60006200027a8482850162000240565b91505092915050565b600062000292602583620002cc565b91506200029f826200034c565b604082019050919050565b60006020820190508181036000830152620002c58162000283565b9050919050565b600082825260208201905092915050565b6000819050919050565b600060028204905060018216806200030057607f821691505b602082108114156200031757620003166200031d565b5b50919050565b7f4e487b7100000000000000000000000000000000000000000000000000000000600052602260045260246000fd5b7f54696d65206d75737420626520686967686572207468616e2063757272656e7460008201527f2074696d65000000000000000000000000000000000000000000000000000000602082015250565b620003a681620002dd565b8114620003b257600080fd5b50565b61174080620003c56000396000f3fe608060405234801561001057600080fd5b50600436106100cf5760003560e01c8063715018a61161008c578063a3ec138d11610066578063a3ec138d146101df578063ce5b87031461020f578063ecb617d91461023f578063f2fde38b14610249576100cf565b8063715018a6146101995780638da5cb5b146101a357806398c07938146101c1576100cf565b806306fdde03146100d45780632d35a8a2146100f25780633477ee2e146101105780633eb76b9c146101435780634a2a84c51461015f5780635c46f8761461017b575b600080fd5b6100dc610265565b6040516100e991906111d3565b60405180910390f35b6100fa6102f3565b60405161010791906112b5565b60405180910390f35b61012a60048036038101906101259190611004565b6102f9565b60405161013a949392919061131c565b60405180910390f35b61015d60048036038101906101589190611004565b6103d1565b005b61017960048036038101906101749190610fb0565b610759565b005b6101836109c4565b60405161019091906112b5565b60405180910390f35b6101a16109ca565b005b6101ab610b04565b6040516101b89190611174565b60405180910390f35b6101c9610b2d565b6040516101d691906112b5565b60405180910390f35b6101f960048036038101906101f49190610f87565b610b33565b60405161020691906111b8565b60405180910390f35b61022960048036038101906102249190610f87565b610b53565b60405161023691906112b5565b60405180910390f35b610247610b6b565b005b610263600480360381019061025e9190610f87565b610ca1565b005b6001805461027290611476565b80601f016020809104026020016040519081016040528092919081815260200182805461029e90611476565b80156102eb5780601f106102c0576101008083540402835291602001916102eb565b820191906000526020600020905b8154815290600101906020018083116102ce57829003601f168201915b505050505081565b60055481565b600360205280600052604060002060009150905080600001549080600101549080600201805461032890611476565b80601f016020809104026020016040519081016040528092919081815260200182805461035490611476565b80156103a15780601f10610376576101008083540402835291602001916103a1565b820191906000526020600020905b81548152906001019060200180831161038457829003601f168201915b5050505050908060030160009054906101000a900473ffffffffffffffffffffffffffffffffffffffff16905084565b600260003373ffffffffffffffffffffffffffffffffffffffff1673ffffffffffffffffffffffffffffffffffffffff16815260200190815260200160002060009054906101000a900460ff1661045d576040517f08c379a000000000000000000000000000000000000000000000000000000000815260040161045490611215565b60405180910390fd5b3373ffffffffffffffffffffffffffffffffffffffff166003600083815260200190815260200160002060030160009054906101000a900473ffffffffffffffffffffffffffffffffffffffff1673ffffffffffffffffffffffffffffffffffffffff1614610501576040517f08c379a00000000000000000000000000000000000000000000000000000000081526004016104f890611275565b60405180910390fd5b600060036000838152602001908152602001600020604051806080016040529081600082015481526020016001820154815260200160028201805461054590611476565b80601f016020809104026020016040519081016040528092919081815260200182805461057190611476565b80156105be5780601f10610593576101008083540402835291602001916105be565b820191906000526020600020905b8154815290600101906020018083116105a157829003601f168201915b505050505081526020016003820160009054906101000a900473ffffffffffffffffffffffffffffffffffffffff1673ffffffffffffffffffffffffffffffffffffffff1673ffffffffffffffffffffffffffffffffffffffff16815250509050806020018051809190610631906114d9565b81525050806003600084815260200190815260200160002060008201518160000155602082015181600101556040820151816002019080519060200190610679929190610e52565b5060608201518160030160006101000a81548173ffffffffffffffffffffffffffffffffffffffff021916908373ffffffffffffffffffffffffffffffffffffffff1602179055509050506000600260003373ffffffffffffffffffffffffffffffffffffffff1673ffffffffffffffffffffffffffffffffffffffff16815260200190815260200160002060006101000a81548160ff0219169083151502179055507fd0e6c39f2e086dc49f1524b47725526a56945cd1ff661f37976f1725a1e56986338360405161074d92919061118f565b60405180910390a15050565b610761610e4a565b73ffffffffffffffffffffffffffffffffffffffff1661077f610b04565b73ffffffffffffffffffffffffffffffffffffffff16146107d5576040517f08c379a00000000000000000000000000000000000000000000000000000000081526004016107cc90611295565b60405180910390fd5b6000600460008373ffffffffffffffffffffffffffffffffffffffff1673ffffffffffffffffffffffffffffffffffffffff168152602001908152602001600020541415610858576040517f08c379a000000000000000000000000000000000000000000000000000000000815260040161084f90611255565b60405180910390fd5b6005600081548092919061086b906114d9565b919050555060405180608001604052806005548152602001600081526020018381526020018273ffffffffffffffffffffffffffffffffffffffff16815250600360006005548152602001908152602001600020600082015181600001556020820151816001015560408201518160020190805190602001906108ef929190610e52565b5060608201518160030160006101000a81548173ffffffffffffffffffffffffffffffffffffffff021916908373ffffffffffffffffffffffffffffffffffffffff160217905550905050600554600460008373ffffffffffffffffffffffffffffffffffffffff1673ffffffffffffffffffffffffffffffffffffffff168152602001908152602001600020819055507f215b7e673452bf74f22ff23e0ceae9bb39a67a2ab41e8213510b47f2dafda7db600554600084846040516109b894939291906112d0565b60405180910390a15050565b60075481565b6109d2610e4a565b73ffffffffffffffffffffffffffffffffffffffff166109f0610b04565b73ffffffffffffffffffffffffffffffffffffffff1614610a46576040517f08c379a0000000000000000000000000000000000000000000000000000000008152600401610a3d90611295565b60405180910390fd5b600073ffffffffffffffffffffffffffffffffffffffff1660008054906101000a900473ffffffffffffffffffffffffffffffffffffffff1673ffffffffffffffffffffffffffffffffffffffff167f8be0079c531659141344cd1fd0a4f28419497f9722a3daafe3b4186f6b6457e060405160405180910390a360008060006101000a81548173ffffffffffffffffffffffffffffffffffffffff021916908373ffffffffffffffffffffffffffffffffffffffff160217905550565b60008060009054906101000a900473ffffffffffffffffffffffffffffffffffffffff16905090565b60065481565b60026020528060005260406000206000915054906101000a900460ff1681565b60046020528060005260406000206000915090505481565b600260003373ffffffffffffffffffffffffffffffffffffffff1673ffffffffffffffffffffffffffffffffffffffff16815260200190815260200160002060009054906101000a900460ff1615610bf8576040517f08c379a0000000000000000000000000000000000000000000000000000000008152600401610bef90611235565b60405180910390fd5b60066000815480929190610c0b906114d9565b91905055506001600260003373ffffffffffffffffffffffffffffffffffffffff1673ffffffffffffffffffffffffffffffffffffffff16815260200190815260200160002060006101000a81548160ff0219169083151502179055507fb6be2187d059cc2a55fe29e0e503b566e1e0f8c8780096e185429350acffd3dd33604051610c979190611174565b60405180910390a1565b610ca9610e4a565b73ffffffffffffffffffffffffffffffffffffffff16610cc7610b04565b73ffffffffffffffffffffffffffffffffffffffff1614610d1d576040517f08c379a0000000000000000000000000000000000000000000000000000000008152600401610d1490611295565b60405180910390fd5b600073ffffffffffffffffffffffffffffffffffffffff168173ffffffffffffffffffffffffffffffffffffffff161415610d8d576040517f08c379a0000000000000000000000000000000000000000000000000000000008152600401610d84906111f5565b60405180910390fd5b8073ffffffffffffffffffffffffffffffffffffffff1660008054906101000a900473ffffffffffffffffffffffffffffffffffffffff1673ffffffffffffffffffffffffffffffffffffffff167f8be0079c531659141344cd1fd0a4f28419497f9722a3daafe3b4186f6b6457e060405160405180910390a3806000806101000a81548173ffffffffffffffffffffffffffffffffffffffff021916908373ffffffffffffffffffffffffffffffffffffffff16021790555050565b600033905090565b828054610e5e90611476565b90600052602060002090601f016020900481019282610e805760008555610ec7565b82601f10610e9957805160ff1916838001178555610ec7565b82800160010185558215610ec7579182015b82811115610ec6578251825591602001919060010190610eab565b5b509050610ed49190610ed8565b5090565b5b80821115610ef1576000816000905550600101610ed9565b5090565b6000610f08610f038461138d565b611368565b905082815260208101848484011115610f2057600080fd5b610f2b848285611434565b509392505050565b600081359050610f42816116dc565b92915050565b600082601f830112610f5957600080fd5b8135610f69848260208601610ef5565b91505092915050565b600081359050610f81816116f3565b92915050565b600060208284031215610f9957600080fd5b6000610fa784828501610f33565b91505092915050565b60008060408385031215610fc357600080fd5b600083013567ffffffffffffffff811115610fdd57600080fd5b610fe985828601610f48565b9250506020610ffa85828601610f33565b9150509250929050565b60006020828403121561101657600080fd5b600061102484828501610f72565b91505092915050565b611036816113da565b82525050565b611045816113ec565b82525050565b61105481611422565b82525050565b6000611065826113be565b61106f81856113c9565b935061107f818560208601611443565b611088816115af565b840191505092915050565b60006110a06026836113c9565b91506110ab826115c0565b604082019050919050565b60006110c36014836113c9565b91506110ce8261160f565b602082019050919050565b60006110e66014836113c9565b91506110f182611638565b602082019050919050565b60006111096018836113c9565b915061111482611661565b602082019050919050565b600061112c6018836113c9565b91506111378261168a565b602082019050919050565b600061114f6020836113c9565b915061115a826116b3565b602082019050919050565b61116e81611418565b82525050565b6000602082019050611189600083018461102d565b92915050565b60006040820190506111a4600083018561102d565b6111b16020830184611165565b9392505050565b60006020820190506111cd600083018461103c565b92915050565b600060208201905081810360008301526111ed818461105a565b905092915050565b6000602082019050818103600083015261120e81611093565b9050919050565b6000602082019050818103600083015261122e816110b6565b9050919050565b6000602082019050818103600083015261124e816110d9565b9050919050565b6000602082019050818103600083015261126e816110fc565b9050919050565b6000602082019050818103600083015261128e8161111f565b9050919050565b600060208201905081810360008301526112ae81611142565b9050919050565b60006020820190506112ca6000830184611165565b92915050565b60006080820190506112e56000830187611165565b6112f2602083018661104b565b8181036040830152611304818561105a565b9050611313606083018461102d565b95945050505050565b60006080820190506113316000830187611165565b61133e6020830186611165565b8181036040830152611350818561105a565b905061135f606083018461102d565b95945050505050565b6000611372611383565b905061137e82826114a8565b919050565b6000604051905090565b600067ffffffffffffffff8211156113a8576113a7611580565b5b6113b1826115af565b9050602081019050919050565b600081519050919050565b600082825260208201905092915050565b60006113e5826113f8565b9050919050565b60008115159050919050565b600073ffffffffffffffffffffffffffffffffffffffff82169050919050565b6000819050919050565b600061142d82611418565b9050919050565b82818337600083830152505050565b60005b83811015611461578082015181840152602081019050611446565b83811115611470576000848401525b50505050565b6000600282049050600182168061148e57607f821691505b602082108114156114a2576114a1611551565b5b50919050565b6114b1826115af565b810181811067ffffffffffffffff821117156114d0576114cf611580565b5b80604052505050565b60006114e482611418565b91507fffffffffffffffffffffffffffffffffffffffffffffffffffffffffffffffff82141561151757611516611522565b5b600182019050919050565b7f4e487b7100000000000000000000000000000000000000000000000000000000600052601160045260246000fd5b7f4e487b7100000000000000000000000000000000000000000000000000000000600052602260045260246000fd5b7f4e487b7100000000000000000000000000000000000000000000000000000000600052604160045260246000fd5b6000601f19601f8301169050919050565b7f4f776e61626c653a206e6577206f776e657220697320746865207a65726f206160008201527f6464726573730000000000000000000000000000000000000000000000000000602082015250565b7f566f746572206e6f742072656769737465726564000000000000000000000000600082015250565b7f566f74657220616c726561647920657869737473000000000000000000000000600082015250565b7f43616e64696461746520616c7265616479206578697374730000000000000000600082015250565b7f43616e64696461746520646f6573206e6f742065786973740000000000000000600082015250565b7f4f776e61626c653a2063616c6c6572206973206e6f7420746865206f776e6572600082015250565b6116e5816113da565b81146116f057600080fd5b50565b6116fc81611418565b811461170757600080fd5b5056fea2646970667358221220886c615d9d0be372964cfb00abbf0dcd6b682329fde01d478c557945ad96f58864736f6c63430008040033",
  "immutableReferences": {},
  "source": "pragma solidity ^0.8.0;\n\nimport \"@openzeppelin/contracts/access/Ownable.sol\";\n\ncontract Election is Ownable {\n\tstring public name = \"Election\";\n\n\tstruct Candidate {\n\t\tuint id;\n\t\tuint voteCount;\n\t\tstring name;\n\t\taddress owner;\n\t}\n\n\tmapping(address => bool) public voters;\n\tmapping(uint => Candidate) public candidates;\n\tmapping(address => uint) public addressToCandidateId;\n\n\tevent CandidateAdded(\n\t\tuint id,\n\t\tuint voteCount,\n\t\tstring name,\n\t\taddress owner\n\t);\n\n\tevent VoterRegistered(\n\t\taddress voter\n\t);\n\n\tevent ElectionDateUpdated(\n\t\tuint time\n\t);\n\n\tevent VoteCasted(\n\t\taddress voter,\n\t\tuint candidateId\n\t);\n\n\tuint public candidatesCount;\n\tuint public votersCount;\n\n\tuint public electionDate;\n\n\tconstructor(uint _time) {\n\t\trequire(_time > block.timestamp, \"Time must be higher than current time\");\n\t\telectionDate = _time;\n\t\t\n\t}\n\n\tfunction addCandidate(string memory _name, address _candidate) public onlyOwner {\n\t\trequire(addressToCandidateId[_candidate] != 0, \"Candidate already exists\");\n\t\tcandidatesCount++;\n\t\tcandidates[candidatesCount] = Candidate(candidatesCount, 0, _name, _candidate);\n\t\taddressToCandidateId[_candidate] = candidatesCount;\n\t\temit CandidateAdded(candidatesCount, 0, _name, _candidate);\n\t}\n\n\t// test voter already voted\n\t// add register time limit\n\tfunction registerVoter() public {\n\t\trequire(!voters[msg.sender], \"Voter already exists\");\n\t\tvotersCount++;\n\t\tvoters[msg.sender] = true;\n\t\temit VoterRegistered(msg.sender);\n\t}\n\n\t// disable voting when time ends \n\tfunction castVote(uint _candidateId) public {\n\t\trequire(voters[msg.sender], \"Voter not registered\");\n\t\trequire(candidates[_candidateId].owner == msg.sender, \"Candidate does not exist\");\n\t\tCandidate memory candidate = candidates[_candidateId];\n\t\tcandidate.voteCount++;\n\t\tcandidates[_candidateId] = candidate;\n\t\tvoters[msg.sender] = false;\n\t\temit VoteCasted(msg.sender, _candidateId);\n\t}\n\n\t// must get the candidate with the higher votes\n\t// function getWinnerCandidate(uint _candidateId) view public returns(uint) {\n\t// \trequire(candidates[_candidateId], \"Candidate does not exist\");\n\t// \treturn candidates[_candidateId];\n\t// }\n\n}",
  "sourcePath": "/Users/zlayine/Desktop/election/src/contracts/Election.sol",
  "compiler": {
    "name": "solc",
    "version": "0.8.4+commit.c7e474f2.Emscripten.clang"
  },
  "schemaVersion": "3.2.3",
  "updatedAt": "2021-05-30T12:29:19.568Z",
  "devdoc": {
    "kind": "dev",
    "methods": {
      "owner()": {
        "details": "Returns the address of the current owner."
      },
      "renounceOwnership()": {
        "details": "Leaves the contract without owner. It will not be possible to call `onlyOwner` functions anymore. Can only be called by the current owner. NOTE: Renouncing ownership will leave the contract without an owner, thereby removing any functionality that is only available to the owner."
      },
      "transferOwnership(address)": {
        "details": "Transfers ownership of the contract to a new account (`newOwner`). Can only be called by the current owner."
      }
    },
    "version": 1
  },
  "userdoc": {
    "kind": "user",
    "methods": {},
    "version": 1
  }
}