{
  "contractName": "Election",
  "abi": [
    {
      "anonymous": false,
      "inputs": [
        {
          "indexed": false,
          "internalType": "uint256",
          "name": "id",
          "type": "uint256"
        },
        {
          "indexed": false,
          "internalType": "uint256",
          "name": "voteCount",
          "type": "uint256"
        },
        {
          "indexed": false,
          "internalType": "string",
          "name": "name",
          "type": "string"
        },
        {
          "indexed": false,
          "internalType": "address",
          "name": "candidate",
          "type": "address"
        }
      ],
      "name": "CandidateAdded",
      "type": "event"
    },
    {
      "anonymous": false,
      "inputs": [
        {
          "indexed": false,
          "internalType": "uint256",
          "name": "time",
          "type": "uint256"
        }
      ],
      "name": "ElectionDateUpdated",
      "type": "event"
    },
    {
      "anonymous": false,
      "inputs": [
        {
          "indexed": false,
          "internalType": "uint256",
          "name": "data",
          "type": "uint256"
        }
      ],
      "name": "Log",
      "type": "event"
    },
    {
      "anonymous": false,
      "inputs": [
        {
          "indexed": true,
          "internalType": "address",
          "name": "previousOwner",
          "type": "address"
        },
        {
          "indexed": true,
          "internalType": "address",
          "name": "newOwner",
          "type": "address"
        }
      ],
      "name": "OwnershipTransferred",
      "type": "event"
    },
    {
      "anonymous": false,
      "inputs": [
        {
          "indexed": false,
          "internalType": "uint256",
          "name": "id",
          "type": "uint256"
        },
        {
          "indexed": false,
          "internalType": "bool",
          "name": "voted",
          "type": "bool"
        },
        {
          "indexed": false,
          "internalType": "string",
          "name": "name",
          "type": "string"
        },
        {
          "indexed": false,
          "internalType": "address",
          "name": "voter",
          "type": "address"
        },
        {
          "indexed": false,
          "internalType": "uint256",
          "name": "candidateId",
          "type": "uint256"
        }
      ],
      "name": "VoteCasted",
      "type": "event"
    },
    {
      "anonymous": false,
      "inputs": [
        {
          "indexed": false,
          "internalType": "uint256",
          "name": "id",
          "type": "uint256"
        },
        {
          "indexed": false,
          "internalType": "string",
          "name": "name",
          "type": "string"
        },
        {
          "indexed": false,
          "internalType": "address",
          "name": "voter",
          "type": "address"
        }
      ],
      "name": "VoterRegistered",
      "type": "event"
    },
    {
      "inputs": [
        {
          "internalType": "address",
          "name": "",
          "type": "address"
        }
      ],
      "name": "addressToCandidateId",
      "outputs": [
        {
          "internalType": "uint256",
          "name": "",
          "type": "uint256"
        }
      ],
      "stateMutability": "view",
      "type": "function",
      "constant": true
    },
    {
      "inputs": [
        {
          "internalType": "address",
          "name": "",
          "type": "address"
        }
      ],
      "name": "addressToVoterId",
      "outputs": [
        {
          "internalType": "uint256",
          "name": "",
          "type": "uint256"
        }
      ],
      "stateMutability": "view",
      "type": "function",
      "constant": true
    },
    {
      "inputs": [
        {
          "internalType": "uint256",
          "name": "",
          "type": "uint256"
        }
      ],
      "name": "candidates",
      "outputs": [
        {
          "internalType": "uint256",
          "name": "id",
          "type": "uint256"
        },
        {
          "internalType": "uint256",
          "name": "voteCount",
          "type": "uint256"
        },
        {
          "internalType": "string",
          "name": "name",
          "type": "string"
        },
        {
          "internalType": "address",
          "name": "candidate",
          "type": "address"
        }
      ],
      "stateMutability": "view",
      "type": "function",
      "constant": true
    },
    {
      "inputs": [],
      "name": "candidatesCount",
      "outputs": [
        {
          "internalType": "uint256",
          "name": "",
          "type": "uint256"
        }
      ],
      "stateMutability": "view",
      "type": "function",
      "constant": true
    },
    {
      "inputs": [],
      "name": "electionDate",
      "outputs": [
        {
          "internalType": "uint256",
          "name": "",
          "type": "uint256"
        }
      ],
      "stateMutability": "view",
      "type": "function",
      "constant": true
    },
    {
      "inputs": [],
      "name": "name",
      "outputs": [
        {
          "internalType": "string",
          "name": "",
          "type": "string"
        }
      ],
      "stateMutability": "view",
      "type": "function",
      "constant": true
    },
    {
      "inputs": [],
      "name": "owner",
      "outputs": [
        {
          "internalType": "address",
          "name": "",
          "type": "address"
        }
      ],
      "stateMutability": "view",
      "type": "function",
      "constant": true
    },
    {
      "inputs": [],
      "name": "renounceOwnership",
      "outputs": [],
      "stateMutability": "nonpayable",
      "type": "function"
    },
    {
      "inputs": [
        {
          "internalType": "address",
          "name": "newOwner",
          "type": "address"
        }
      ],
      "name": "transferOwnership",
      "outputs": [],
      "stateMutability": "nonpayable",
      "type": "function"
    },
    {
      "inputs": [
        {
          "internalType": "uint256",
          "name": "",
          "type": "uint256"
        }
      ],
      "name": "voters",
      "outputs": [
        {
          "internalType": "uint256",
          "name": "id",
          "type": "uint256"
        },
        {
          "internalType": "bool",
          "name": "voted",
          "type": "bool"
        },
        {
          "internalType": "string",
          "name": "name",
          "type": "string"
        },
        {
          "internalType": "address",
          "name": "voter",
          "type": "address"
        }
      ],
      "stateMutability": "view",
      "type": "function",
      "constant": true
    },
    {
      "inputs": [],
      "name": "votersCount",
      "outputs": [
        {
          "internalType": "uint256",
          "name": "",
          "type": "uint256"
        }
      ],
      "stateMutability": "view",
      "type": "function",
      "constant": true
    },
    {
      "inputs": [
        {
          "internalType": "string",
          "name": "_name",
          "type": "string"
        },
        {
          "internalType": "address",
          "name": "_candidate",
          "type": "address"
        }
      ],
      "name": "addCandidate",
      "outputs": [],
      "stateMutability": "nonpayable",
      "type": "function"
    },
    {
      "inputs": [
        {
          "internalType": "uint256",
          "name": "_time",
          "type": "uint256"
        }
      ],
      "name": "setElectionDate",
      "outputs": [],
      "stateMutability": "nonpayable",
      "type": "function"
    },
    {
      "inputs": [
        {
          "internalType": "string",
          "name": "_name",
          "type": "string"
        }
      ],
      "name": "registerVoter",
      "outputs": [],
      "stateMutability": "nonpayable",
      "type": "function"
    },
    {
      "inputs": [
        {
          "internalType": "uint256",
          "name": "_candidateId",
          "type": "uint256"
        }
      ],
      "name": "castVote",
      "outputs": [],
      "stateMutability": "nonpayable",
      "type": "function"
    },
    {
      "inputs": [],
      "name": "getWinnerCandidate",
      "outputs": [
        {
          "internalType": "uint256",
          "name": "id",
          "type": "uint256"
        },
        {
          "internalType": "uint256",
          "name": "voteCount",
          "type": "uint256"
        },
        {
          "internalType": "string",
          "name": "name",
          "type": "string"
        }
      ],
      "stateMutability": "view",
      "type": "function",
      "constant": true
    }
  ],
  "bytecode": "0x60806040526040518060400160405280600881526020017f456c656374696f6e00000000000000000000000000000000000000000000000081525060019080519060200190620000519291906200011e565b503480156200005f57600080fd5b506000620000726200011660201b60201c565b9050806000806101000a81548173ffffffffffffffffffffffffffffffffffffffff021916908373ffffffffffffffffffffffffffffffffffffffff1602179055508073ffffffffffffffffffffffffffffffffffffffff16600073ffffffffffffffffffffffffffffffffffffffff167f8be0079c531659141344cd1fd0a4f28419497f9722a3daafe3b4186f6b6457e060405160405180910390a35062000233565b600033905090565b8280546200012c90620001ce565b90600052602060002090601f0160209004810192826200015057600085556200019c565b82601f106200016b57805160ff19168380011785556200019c565b828001600101855582156200019c579182015b828111156200019b5782518255916020019190600101906200017e565b5b509050620001ab9190620001af565b5090565b5b80821115620001ca576000816000905550600101620001b0565b5090565b60006002820490506001821680620001e757607f821691505b60208210811415620001fe57620001fd62000204565b5b50919050565b7f4e487b7100000000000000000000000000000000000000000000000000000000600052602260045260246000fd5b61235580620002436000396000f3fe608060405234801561001057600080fd5b50600436106101005760003560e01c80636428a48611610097578063ce5b870311610066578063ce5b870314610268578063da58c7d914610298578063f2fde38b146102cb578063fe62ade0146102e757610100565b80636428a48614610206578063715018a6146102225780638da5cb5b1461022c57806398c079381461024a57610100565b80633eb76b9c116100d35780633eb76b9c146101945780634a2a1b98146101b05780634a2a84c5146101cc5780635c46f876146101e857610100565b806306f0d4f61461010557806306fdde03146101255780632d35a8a2146101435780633477ee2e14610161575b600080fd5b61010d610317565b60405161011c93929190611e03565b60405180910390f35b61012d6105bf565b60405161013a9190611b56565b60405180910390f35b61014b61064d565b6040516101589190611cb8565b60405180910390f35b61017b6004803603810190610176919061193f565b610653565b60405161018b9493929190611e41565b60405180910390f35b6101ae60048036038101906101a9919061193f565b61072b565b005b6101ca60048036038101906101c5919061193f565b610d29565b005b6101e660048036038101906101e191906118eb565b610e29565b005b6101f0611093565b6040516101fd9190611cb8565b60405180910390f35b610220600480360381019061021b91906118aa565b611099565b005b61022a6112df565b005b610234611419565b6040516102419190611b3b565b60405180910390f35b610252611442565b60405161025f9190611cb8565b60405180910390f35b610282600480360381019061027d9190611881565b611448565b60405161028f9190611cb8565b60405180910390f35b6102b260048036038101906102ad919061193f565b611460565b6040516102c29493929190611cd3565b60405180910390f35b6102e560048036038101906102e09190611881565b611545565b005b61030160048036038101906102fc9190611881565b6116ee565b60405161030e9190611cb8565b60405180910390f35b600080606061032461170e565b6003600060018152602001908152602001600020604051806080016040529081600082015481526020016001820154815260200160028201805461036790611f9b565b80601f016020809104026020016040519081016040528092919081815260200182805461039390611f9b565b80156103e05780601f106103b5576101008083540402835291602001916103e0565b820191906000526020600020905b8154815290600101906020018083116103c357829003601f168201915b505050505081526020016003820160009054906101000a900473ffffffffffffffffffffffffffffffffffffffff1673ffffffffffffffffffffffffffffffffffffffff1673ffffffffffffffffffffffffffffffffffffffff168152505090506000600190505b60065481116105a357816020015160036000838152602001908152602001600020600101541115610590576003600082815260200190815260200160002060405180608001604052908160008201548152602001600182015481526020016002820180546104b590611f9b565b80601f01602080910402602001604051908101604052809291908181526020018280546104e190611f9b565b801561052e5780601f106105035761010080835404028352916020019161052e565b820191906000526020600020905b81548152906001019060200180831161051157829003601f168201915b505050505081526020016003820160009054906101000a900473ffffffffffffffffffffffffffffffffffffffff1673ffffffffffffffffffffffffffffffffffffffff1673ffffffffffffffffffffffffffffffffffffffff168152505091505b808061059b90611ffe565b915050610448565b5080600001518160200151826040015193509350935050909192565b600180546105cc90611f9b565b80601f01602080910402602001604051908101604052809291908181526020018280546105f890611f9b565b80156106455780601f1061061a57610100808354040283529160200191610645565b820191906000526020600020905b81548152906001019060200180831161062857829003601f168201915b505050505081565b60065481565b600360205280600052604060002060009150905080600001549080600101549080600201805461068290611f9b565b80601f01602080910402602001604051908101604052809291908181526020018280546106ae90611f9b565b80156106fb5780601f106106d0576101008083540402835291602001916106fb565b820191906000526020600020905b8154815290600101906020018083116106de57829003601f168201915b5050505050908060030160009054906101000a900473ffffffffffffffffffffffffffffffffffffffff16905084565b6000600560003373ffffffffffffffffffffffffffffffffffffffff1673ffffffffffffffffffffffffffffffffffffffff16815260200190815260200160002054905060008114156107b3576040517f08c379a00000000000000000000000000000000000000000000000000000000081526004016107aa90611b98565b60405180910390fd5b600082116107f6576040517f08c379a00000000000000000000000000000000000000000000000000000000081526004016107ed90611c18565b60405180910390fd5b600073ffffffffffffffffffffffffffffffffffffffff166003600084815260200190815260200160002060030160009054906101000a900473ffffffffffffffffffffffffffffffffffffffff1673ffffffffffffffffffffffffffffffffffffffff16141561089c576040517f08c379a000000000000000000000000000000000000000000000000000000000815260040161089390611c18565b60405180910390fd5b6008544210156108e1576040517f08c379a00000000000000000000000000000000000000000000000000000000081526004016108d890611c78565b60405180910390fd5b600060026000838152602001908152602001600020604051806080016040529081600082015481526020016001820160009054906101000a900460ff1615151515815260200160028201805461093690611f9b565b80601f016020809104026020016040519081016040528092919081815260200182805461096290611f9b565b80156109af5780601f10610984576101008083540402835291602001916109af565b820191906000526020600020905b81548152906001019060200180831161099257829003601f168201915b505050505081526020016003820160009054906101000a900473ffffffffffffffffffffffffffffffffffffffff1673ffffffffffffffffffffffffffffffffffffffff1673ffffffffffffffffffffffffffffffffffffffff16815250509050600015158160200151151514610a5b576040517f08c379a0000000000000000000000000000000000000000000000000000000008152600401610a5290611c38565b60405180910390fd5b600181602001901515908115158152505080600260008481526020019081526020016000206000820151816000015560208201518160010160006101000a81548160ff0219169083151502179055506040820151816002019080519060200190610ac692919061174c565b5060608201518160030160006101000a81548173ffffffffffffffffffffffffffffffffffffffff021916908373ffffffffffffffffffffffffffffffffffffffff1602179055509050506000600360008581526020019081526020016000206040518060800160405290816000820154815260200160018201548152602001600282018054610b5590611f9b565b80601f0160208091040260200160405190810160405280929190818152602001828054610b8190611f9b565b8015610bce5780601f10610ba357610100808354040283529160200191610bce565b820191906000526020600020905b815481529060010190602001808311610bb157829003601f168201915b505050505081526020016003820160009054906101000a900473ffffffffffffffffffffffffffffffffffffffff1673ffffffffffffffffffffffffffffffffffffffff1673ffffffffffffffffffffffffffffffffffffffff16815250509050806020018051809190610c4190611ffe565b81525050806003600086815260200190815260200160002060008201518160000155602082015181600101556040820151816002019080519060200190610c8992919061174c565b5060608201518160030160006101000a81548173ffffffffffffffffffffffffffffffffffffffff021916908373ffffffffffffffffffffffffffffffffffffffff1602179055509050507fd171c956bd95c24ae8b5faa7220ececabad442832ff8e8eed088fe7eb66f7363826000015183602001518460400151338560000151604051610d1b959493929190611d1f565b60405180910390a150505050565b610d31611706565b73ffffffffffffffffffffffffffffffffffffffff16610d4f611419565b73ffffffffffffffffffffffffffffffffffffffff1614610da5576040517f08c379a0000000000000000000000000000000000000000000000000000000008152600401610d9c90611c58565b60405180910390fd5b42811015610de8576040517f08c379a0000000000000000000000000000000000000000000000000000000008152600401610ddf90611bb8565b60405180910390fd5b806008819055507f2b3ae71801cef2c89322be1fcc2e9d83cd09032a94287857afa4fa72251d558a81604051610e1e9190611cb8565b60405180910390a150565b610e31611706565b73ffffffffffffffffffffffffffffffffffffffff16610e4f611419565b73ffffffffffffffffffffffffffffffffffffffff1614610ea5576040517f08c379a0000000000000000000000000000000000000000000000000000000008152600401610e9c90611c58565b60405180910390fd5b6000600460008373ffffffffffffffffffffffffffffffffffffffff1673ffffffffffffffffffffffffffffffffffffffff1681526020019081526020016000205414610f27576040517f08c379a0000000000000000000000000000000000000000000000000000000008152600401610f1e90611bf8565b60405180910390fd5b60066000815480929190610f3a90611ffe565b919050555060405180608001604052806006548152602001600081526020018381526020018273ffffffffffffffffffffffffffffffffffffffff1681525060036000600654815260200190815260200160002060008201518160000155602082015181600101556040820151816002019080519060200190610fbe92919061174c565b5060608201518160030160006101000a81548173ffffffffffffffffffffffffffffffffffffffff021916908373ffffffffffffffffffffffffffffffffffffffff160217905550905050600654600460008373ffffffffffffffffffffffffffffffffffffffff1673ffffffffffffffffffffffffffffffffffffffff168152602001908152602001600020819055507f215b7e673452bf74f22ff23e0ceae9bb39a67a2ab41e8213510b47f2dafda7db600654600084846040516110879493929190611d79565b60405180910390a15050565b60085481565b6000600560003373ffffffffffffffffffffffffffffffffffffffff1673ffffffffffffffffffffffffffffffffffffffff168152602001908152602001600020541461111b576040517f08c379a000000000000000000000000000000000000000000000000000000000815260040161111290611bd8565b60405180910390fd5b600854421061115f576040517f08c379a000000000000000000000000000000000000000000000000000000000815260040161115690611c98565b60405180910390fd5b6007600081548092919061117290611ffe565b9190505550604051806080016040528060075481526020016000151581526020018281526020013373ffffffffffffffffffffffffffffffffffffffff168152506002600060075481526020019081526020016000206000820151816000015560208201518160010160006101000a81548160ff021916908315150217905550604082015181600201908051906020019061120e92919061174c565b5060608201518160030160006101000a81548173ffffffffffffffffffffffffffffffffffffffff021916908373ffffffffffffffffffffffffffffffffffffffff160217905550905050600754600560003373ffffffffffffffffffffffffffffffffffffffff1673ffffffffffffffffffffffffffffffffffffffff168152602001908152602001600020819055507f4f2c2b3d3a0a44cf2caecb9bf32943fcf10b476b25da60a8c36e23f5d04f261f60075482336040516112d493929190611dc5565b60405180910390a150565b6112e7611706565b73ffffffffffffffffffffffffffffffffffffffff16611305611419565b73ffffffffffffffffffffffffffffffffffffffff161461135b576040517f08c379a000000000000000000000000000000000000000000000000000000000815260040161135290611c58565b60405180910390fd5b600073ffffffffffffffffffffffffffffffffffffffff1660008054906101000a900473ffffffffffffffffffffffffffffffffffffffff1673ffffffffffffffffffffffffffffffffffffffff167f8be0079c531659141344cd1fd0a4f28419497f9722a3daafe3b4186f6b6457e060405160405180910390a360008060006101000a81548173ffffffffffffffffffffffffffffffffffffffff021916908373ffffffffffffffffffffffffffffffffffffffff160217905550565b60008060009054906101000a900473ffffffffffffffffffffffffffffffffffffffff16905090565b60075481565b60046020528060005260406000206000915090505481565b60026020528060005260406000206000915090508060000154908060010160009054906101000a900460ff169080600201805461149c90611f9b565b80601f01602080910402602001604051908101604052809291908181526020018280546114c890611f9b565b80156115155780601f106114ea57610100808354040283529160200191611515565b820191906000526020600020905b8154815290600101906020018083116114f857829003601f168201915b5050505050908060030160009054906101000a900473ffffffffffffffffffffffffffffffffffffffff16905084565b61154d611706565b73ffffffffffffffffffffffffffffffffffffffff1661156b611419565b73ffffffffffffffffffffffffffffffffffffffff16146115c1576040517f08c379a00000000000000000000000000000000000000000000000000000000081526004016115b890611c58565b60405180910390fd5b600073ffffffffffffffffffffffffffffffffffffffff168173ffffffffffffffffffffffffffffffffffffffff161415611631576040517f08c379a000000000000000000000000000000000000000000000000000000000815260040161162890611b78565b60405180910390fd5b8073ffffffffffffffffffffffffffffffffffffffff1660008054906101000a900473ffffffffffffffffffffffffffffffffffffffff1673ffffffffffffffffffffffffffffffffffffffff167f8be0079c531659141344cd1fd0a4f28419497f9722a3daafe3b4186f6b6457e060405160405180910390a3806000806101000a81548173ffffffffffffffffffffffffffffffffffffffff021916908373ffffffffffffffffffffffffffffffffffffffff16021790555050565b60056020528060005260406000206000915090505481565b600033905090565b6040518060800160405280600081526020016000815260200160608152602001600073ffffffffffffffffffffffffffffffffffffffff1681525090565b82805461175890611f9b565b90600052602060002090601f01602090048101928261177a57600085556117c1565b82601f1061179357805160ff19168380011785556117c1565b828001600101855582156117c1579182015b828111156117c05782518255916020019190600101906117a5565b5b5090506117ce91906117d2565b5090565b5b808211156117eb5760008160009055506001016117d3565b5090565b60006118026117fd84611eb2565b611e8d565b90508281526020810184848401111561181a57600080fd5b611825848285611f59565b509392505050565b60008135905061183c816122f1565b92915050565b600082601f83011261185357600080fd5b81356118638482602086016117ef565b91505092915050565b60008135905061187b81612308565b92915050565b60006020828403121561189357600080fd5b60006118a18482850161182d565b91505092915050565b6000602082840312156118bc57600080fd5b600082013567ffffffffffffffff8111156118d657600080fd5b6118e284828501611842565b91505092915050565b600080604083850312156118fe57600080fd5b600083013567ffffffffffffffff81111561191857600080fd5b61192485828601611842565b92505060206119358582860161182d565b9150509250929050565b60006020828403121561195157600080fd5b600061195f8482850161186c565b91505092915050565b61197181611eff565b82525050565b61198081611f11565b82525050565b61198f81611f47565b82525050565b60006119a082611ee3565b6119aa8185611eee565b93506119ba818560208601611f68565b6119c3816120d4565b840191505092915050565b60006119db602683611eee565b91506119e6826120e5565b604082019050919050565b60006119fe601483611eee565b9150611a0982612134565b602082019050919050565b6000611a21602983611eee565b9150611a2c8261215d565b604082019050919050565b6000611a44601483611eee565b9150611a4f826121ac565b602082019050919050565b6000611a67601883611eee565b9150611a72826121d5565b602082019050919050565b6000611a8a601883611eee565b9150611a95826121fe565b602082019050919050565b6000611aad601383611eee565b9150611ab882612227565b602082019050919050565b6000611ad0602083611eee565b9150611adb82612250565b602082019050919050565b6000611af3602c83611eee565b9150611afe82612279565b604082019050919050565b6000611b16601883611eee565b9150611b21826122c8565b602082019050919050565b611b3581611f3d565b82525050565b6000602082019050611b506000830184611968565b92915050565b60006020820190508181036000830152611b708184611995565b905092915050565b60006020820190508181036000830152611b91816119ce565b9050919050565b60006020820190508181036000830152611bb1816119f1565b9050919050565b60006020820190508181036000830152611bd181611a14565b9050919050565b60006020820190508181036000830152611bf181611a37565b9050919050565b60006020820190508181036000830152611c1181611a5a565b9050919050565b60006020820190508181036000830152611c3181611a7d565b9050919050565b60006020820190508181036000830152611c5181611aa0565b9050919050565b60006020820190508181036000830152611c7181611ac3565b9050919050565b60006020820190508181036000830152611c9181611ae6565b9050919050565b60006020820190508181036000830152611cb181611b09565b9050919050565b6000602082019050611ccd6000830184611b2c565b92915050565b6000608082019050611ce86000830187611b2c565b611cf56020830186611977565b8181036040830152611d078185611995565b9050611d166060830184611968565b95945050505050565b600060a082019050611d346000830188611b2c565b611d416020830187611977565b8181036040830152611d538186611995565b9050611d626060830185611968565b611d6f6080830184611b2c565b9695505050505050565b6000608082019050611d8e6000830187611b2c565b611d9b6020830186611986565b8181036040830152611dad8185611995565b9050611dbc6060830184611968565b95945050505050565b6000606082019050611dda6000830186611b2c565b8181036020830152611dec8185611995565b9050611dfb6040830184611968565b949350505050565b6000606082019050611e186000830186611b2c565b611e256020830185611b2c565b8181036040830152611e378184611995565b9050949350505050565b6000608082019050611e566000830187611b2c565b611e636020830186611b2c565b8181036040830152611e758185611995565b9050611e846060830184611968565b95945050505050565b6000611e97611ea8565b9050611ea38282611fcd565b919050565b6000604051905090565b600067ffffffffffffffff821115611ecd57611ecc6120a5565b5b611ed6826120d4565b9050602081019050919050565b600081519050919050565b600082825260208201905092915050565b6000611f0a82611f1d565b9050919050565b60008115159050919050565b600073ffffffffffffffffffffffffffffffffffffffff82169050919050565b6000819050919050565b6000611f5282611f3d565b9050919050565b82818337600083830152505050565b60005b83811015611f86578082015181840152602081019050611f6b565b83811115611f95576000848401525b50505050565b60006002820490506001821680611fb357607f821691505b60208210811415611fc757611fc6612076565b5b50919050565b611fd6826120d4565b810181811067ffffffffffffffff82111715611ff557611ff46120a5565b5b80604052505050565b600061200982611f3d565b91507fffffffffffffffffffffffffffffffffffffffffffffffffffffffffffffffff82141561203c5761203b612047565b5b600182019050919050565b7f4e487b7100000000000000000000000000000000000000000000000000000000600052601160045260246000fd5b7f4e487b7100000000000000000000000000000000000000000000000000000000600052602260045260246000fd5b7f4e487b7100000000000000000000000000000000000000000000000000000000600052604160045260246000fd5b6000601f19601f8301169050919050565b7f4f776e61626c653a206e6577206f776e657220697320746865207a65726f206160008201527f6464726573730000000000000000000000000000000000000000000000000000602082015250565b7f566f746572206e6f742072656769737465726564000000000000000000000000600082015250565b7f54696d65206d75737420626520686967686572207468616e207468652063757260008201527f72656e742074696d650000000000000000000000000000000000000000000000602082015250565b7f566f74657220616c726561647920657869737473000000000000000000000000600082015250565b7f43616e64696461746520616c7265616479206578697374730000000000000000600082015250565b7f43616e64696461746520646f6573206e6f742065786973740000000000000000600082015250565b7f566f74657220616c726561647920766f74656400000000000000000000000000600082015250565b7f4f776e61626c653a2063616c6c6572206973206e6f7420746865206f776e6572600082015250565b7f456c656374696f6e2068617320656e6465642c20566f7465732063616e6e6f7460008201527f2062652061636365707465640000000000000000000000000000000000000000602082015250565b7f526567697374726174696f6e732061726520636c6f7365640000000000000000600082015250565b6122fa81611eff565b811461230557600080fd5b50565b61231181611f3d565b811461231c57600080fd5b5056fea264697066735822122078a81db59593830e24599b044dd7a5b4b214b3d53e5b8cf5a6ade5b80bf7499564736f6c63430008040033",
  "immutableReferences": {},
  "source": "pragma solidity ^0.8.0;\n\nimport \"@openzeppelin/contracts/access/Ownable.sol\";\n\ncontract Election is Ownable {\n    string public name = \"Election\";\n\n    struct Candidate {\n        uint256 id;\n        uint256 voteCount;\n        string name;\n        address candidate;\n    }\n\n    struct Voter {\n        uint256 id;\n        bool voted;\n        string name;\n        address voter;\n    }\n\n    mapping(uint256 => Voter) public voters;\n    mapping(uint256 => Candidate) public candidates;\n\n    mapping(address => uint256) public addressToCandidateId;\n    mapping(address => uint256) public addressToVoterId;\n\n    event CandidateAdded(\n        uint256 id,\n        uint256 voteCount,\n        string name,\n        address candidate\n    );\n\n    event VoterRegistered(uint256 id, string name, address voter);\n\n    event ElectionDateUpdated(uint256 time);\n\n    event VoteCasted(\n        uint256 id,\n        bool voted,\n        string name,\n        address voter,\n        uint256 candidateId\n    );\n\n    event Log(uint256 data);\n\n    uint256 public candidatesCount;\n    uint256 public votersCount;\n\n    uint256 public electionDate;\n\n    function addCandidate(string memory _name, address _candidate)\n        public\n        onlyOwner\n    {\n        require(\n            addressToCandidateId[_candidate] == 0,\n            \"Candidate already exists\"\n        );\n        candidatesCount++;\n        candidates[candidatesCount] = Candidate(\n            candidatesCount,\n            0,\n            _name,\n            _candidate\n        );\n        addressToCandidateId[_candidate] = candidatesCount;\n        emit CandidateAdded(candidatesCount, 0, _name, _candidate);\n    }\n\n    function setElectionDate(uint256 _time) public onlyOwner{\n        require(\n            _time >= block.timestamp,\n            \"Time must be higher than the current time\"\n        );\n        electionDate = _time;\n        emit ElectionDateUpdated(_time);\n    }\n\n    function registerVoter(string memory _name) public {\n        require(addressToVoterId[msg.sender] == 0, \"Voter already exists\");\n        require(block.timestamp < electionDate, \"Registrations are closed\");\n        votersCount++;\n        voters[votersCount] = Voter(votersCount, false, _name, msg.sender);\n        addressToVoterId[msg.sender] = votersCount;\n        emit VoterRegistered(votersCount, _name, msg.sender);\n    }\n\n    function castVote(uint256 _candidateId) public {\n        uint256 voterId = addressToVoterId[msg.sender];\n        require(voterId != 0, \"Voter not registered\");\n        require(_candidateId > 0, \"Candidate does not exist\");\n        require(\n            candidates[_candidateId].candidate != address(0),\n            \"Candidate does not exist\"\n        );\n        require(\n            block.timestamp >= electionDate,\n            \"Election has ended, Votes cannot be accepted\"\n        );\n        Voter memory voter = voters[voterId];\n        require(voter.voted == false, \"Voter already voted\");\n        voter.voted = true;\n        voters[voterId] = voter;\n        Candidate memory candidate = candidates[_candidateId];\n        candidate.voteCount++;\n        candidates[_candidateId] = candidate;\n        emit VoteCasted(\n            voter.id,\n            voter.voted,\n            voter.name,\n            msg.sender,\n            candidate.id\n        );\n    }\n\n    function getWinnerCandidate()\n        public\n        view\n        returns (uint256 id, uint voteCount, string memory name)\n    {\n        Candidate memory winner;\n        winner = candidates[1];\n        for (uint256 i = 1; i <= candidatesCount; i++) {\n\t\t\t\t\tif (candidates[i].voteCount > winner.voteCount)\n\t\t\t\t\t\twinner = candidates[i];\n\t\t\t\t}\n        return (winner.id, winner.voteCount, winner.name);\n    }\n}\n",
  "sourcePath": "/Users/zlayine/Desktop/election/src/contracts/Election.sol",
  "compiler": {
    "name": "solc",
    "version": "0.8.4+commit.c7e474f2.Emscripten.clang"
  },
  "schemaVersion": "3.2.3",
  "updatedAt": "2021-06-01T15:21:18.914Z",
  "networkType": "ethereum",
  "devdoc": {
    "kind": "dev",
    "methods": {
      "owner()": {
        "details": "Returns the address of the current owner."
      },
      "renounceOwnership()": {
        "details": "Leaves the contract without owner. It will not be possible to call `onlyOwner` functions anymore. Can only be called by the current owner. NOTE: Renouncing ownership will leave the contract without an owner, thereby removing any functionality that is only available to the owner."
      },
      "transferOwnership(address)": {
        "details": "Transfers ownership of the contract to a new account (`newOwner`). Can only be called by the current owner."
      }
    },
    "version": 1
  },
  "userdoc": {
    "kind": "user",
    "methods": {},
    "version": 1
  }
}