{
  "contractName": "Election",
  "abi": [
    {
      "anonymous": false,
      "inputs": [
        {
          "indexed": false,
          "internalType": "uint256",
          "name": "id",
          "type": "uint256"
        },
        {
          "indexed": false,
          "internalType": "uint256",
          "name": "voteCount",
          "type": "uint256"
        },
        {
          "indexed": false,
          "internalType": "string",
          "name": "name",
          "type": "string"
        },
        {
          "indexed": false,
          "internalType": "address",
          "name": "candidate",
          "type": "address"
        }
      ],
      "name": "CandidateAdded",
      "type": "event"
    },
    {
      "anonymous": false,
      "inputs": [
        {
          "indexed": false,
          "internalType": "uint256",
          "name": "time",
          "type": "uint256"
        }
      ],
      "name": "ElectionDateUpdated",
      "type": "event"
    },
    {
      "anonymous": false,
      "inputs": [
        {
          "indexed": false,
          "internalType": "uint256",
          "name": "data",
          "type": "uint256"
        }
      ],
      "name": "Log",
      "type": "event"
    },
    {
      "anonymous": false,
      "inputs": [
        {
          "indexed": true,
          "internalType": "address",
          "name": "previousOwner",
          "type": "address"
        },
        {
          "indexed": true,
          "internalType": "address",
          "name": "newOwner",
          "type": "address"
        }
      ],
      "name": "OwnershipTransferred",
      "type": "event"
    },
    {
      "anonymous": false,
      "inputs": [
        {
          "indexed": false,
          "internalType": "uint256",
          "name": "id",
          "type": "uint256"
        },
        {
          "indexed": false,
          "internalType": "bool",
          "name": "voted",
          "type": "bool"
        },
        {
          "indexed": false,
          "internalType": "string",
          "name": "name",
          "type": "string"
        },
        {
          "indexed": false,
          "internalType": "address",
          "name": "voter",
          "type": "address"
        },
        {
          "indexed": false,
          "internalType": "uint256",
          "name": "candidateId",
          "type": "uint256"
        }
      ],
      "name": "VoteCasted",
      "type": "event"
    },
    {
      "anonymous": false,
      "inputs": [
        {
          "indexed": false,
          "internalType": "uint256",
          "name": "id",
          "type": "uint256"
        },
        {
          "indexed": false,
          "internalType": "string",
          "name": "name",
          "type": "string"
        },
        {
          "indexed": false,
          "internalType": "address",
          "name": "voter",
          "type": "address"
        }
      ],
      "name": "VoterRegistered",
      "type": "event"
    },
    {
      "inputs": [
        {
          "internalType": "address",
          "name": "",
          "type": "address"
        }
      ],
      "name": "addressToCandidateId",
      "outputs": [
        {
          "internalType": "uint256",
          "name": "",
          "type": "uint256"
        }
      ],
      "stateMutability": "view",
      "type": "function",
      "constant": true
    },
    {
      "inputs": [
        {
          "internalType": "address",
          "name": "",
          "type": "address"
        }
      ],
      "name": "addressToVoterId",
      "outputs": [
        {
          "internalType": "uint256",
          "name": "",
          "type": "uint256"
        }
      ],
      "stateMutability": "view",
      "type": "function",
      "constant": true
    },
    {
      "inputs": [
        {
          "internalType": "uint256",
          "name": "",
          "type": "uint256"
        }
      ],
      "name": "candidates",
      "outputs": [
        {
          "internalType": "uint256",
          "name": "id",
          "type": "uint256"
        },
        {
          "internalType": "uint256",
          "name": "voteCount",
          "type": "uint256"
        },
        {
          "internalType": "string",
          "name": "name",
          "type": "string"
        },
        {
          "internalType": "address",
          "name": "candidate",
          "type": "address"
        }
      ],
      "stateMutability": "view",
      "type": "function",
      "constant": true
    },
    {
      "inputs": [],
      "name": "candidatesCount",
      "outputs": [
        {
          "internalType": "uint256",
          "name": "",
          "type": "uint256"
        }
      ],
      "stateMutability": "view",
      "type": "function",
      "constant": true
    },
    {
      "inputs": [],
      "name": "electionDate",
      "outputs": [
        {
          "internalType": "uint256",
          "name": "",
          "type": "uint256"
        }
      ],
      "stateMutability": "view",
      "type": "function",
      "constant": true
    },
    {
      "inputs": [],
      "name": "name",
      "outputs": [
        {
          "internalType": "string",
          "name": "",
          "type": "string"
        }
      ],
      "stateMutability": "view",
      "type": "function",
      "constant": true
    },
    {
      "inputs": [],
      "name": "owner",
      "outputs": [
        {
          "internalType": "address",
          "name": "",
          "type": "address"
        }
      ],
      "stateMutability": "view",
      "type": "function",
      "constant": true
    },
    {
      "inputs": [],
      "name": "renounceOwnership",
      "outputs": [],
      "stateMutability": "nonpayable",
      "type": "function"
    },
    {
      "inputs": [
        {
          "internalType": "address",
          "name": "newOwner",
          "type": "address"
        }
      ],
      "name": "transferOwnership",
      "outputs": [],
      "stateMutability": "nonpayable",
      "type": "function"
    },
    {
      "inputs": [
        {
          "internalType": "uint256",
          "name": "",
          "type": "uint256"
        }
      ],
      "name": "voters",
      "outputs": [
        {
          "internalType": "uint256",
          "name": "id",
          "type": "uint256"
        },
        {
          "internalType": "bool",
          "name": "voted",
          "type": "bool"
        },
        {
          "internalType": "string",
          "name": "name",
          "type": "string"
        },
        {
          "internalType": "address",
          "name": "voter",
          "type": "address"
        }
      ],
      "stateMutability": "view",
      "type": "function",
      "constant": true
    },
    {
      "inputs": [],
      "name": "votersCount",
      "outputs": [
        {
          "internalType": "uint256",
          "name": "",
          "type": "uint256"
        }
      ],
      "stateMutability": "view",
      "type": "function",
      "constant": true
    },
    {
      "inputs": [
        {
          "internalType": "string",
          "name": "_name",
          "type": "string"
        },
        {
          "internalType": "address",
          "name": "_candidate",
          "type": "address"
        }
      ],
      "name": "addCandidate",
      "outputs": [],
      "stateMutability": "nonpayable",
      "type": "function"
    },
    {
      "inputs": [
        {
          "internalType": "uint256",
          "name": "_time",
          "type": "uint256"
        }
      ],
      "name": "setElectionDate",
      "outputs": [],
      "stateMutability": "nonpayable",
      "type": "function"
    },
    {
      "inputs": [
        {
          "internalType": "string",
          "name": "_name",
          "type": "string"
        }
      ],
      "name": "registerVoter",
      "outputs": [],
      "stateMutability": "nonpayable",
      "type": "function"
    },
    {
      "inputs": [
        {
          "internalType": "uint256",
          "name": "_candidateId",
          "type": "uint256"
        }
      ],
      "name": "castVote",
      "outputs": [],
      "stateMutability": "nonpayable",
      "type": "function"
    },
    {
      "inputs": [],
      "name": "getWinnerCandidate",
      "outputs": [
        {
          "internalType": "uint256",
          "name": "id",
          "type": "uint256"
        },
        {
          "internalType": "uint256",
          "name": "voteCount",
          "type": "uint256"
        },
        {
          "internalType": "string",
          "name": "name",
          "type": "string"
        }
      ],
      "stateMutability": "view",
      "type": "function",
      "constant": true
    }
  ],
  "bytecode": "0x60806040526040518060400160405280600881526020017f456c656374696f6e00000000000000000000000000000000000000000000000081525060019080519060200190620000519291906200011e565b503480156200005f57600080fd5b506000620000726200011660201b60201c565b9050806000806101000a81548173ffffffffffffffffffffffffffffffffffffffff021916908373ffffffffffffffffffffffffffffffffffffffff1602179055508073ffffffffffffffffffffffffffffffffffffffff16600073ffffffffffffffffffffffffffffffffffffffff167f8be0079c531659141344cd1fd0a4f28419497f9722a3daafe3b4186f6b6457e060405160405180910390a35062000233565b600033905090565b8280546200012c90620001ce565b90600052602060002090601f0160209004810192826200015057600085556200019c565b82601f106200016b57805160ff19168380011785556200019c565b828001600101855582156200019c579182015b828111156200019b5782518255916020019190600101906200017e565b5b509050620001ab9190620001af565b5090565b5b80821115620001ca576000816000905550600101620001b0565b5090565b60006002820490506001821680620001e757607f821691505b60208210811415620001fe57620001fd62000204565b5b50919050565b7f4e487b7100000000000000000000000000000000000000000000000000000000600052602260045260246000fd5b6122d980620002436000396000f3fe608060405234801561001057600080fd5b50600436106101005760003560e01c80636428a48611610097578063ce5b870311610066578063ce5b870314610268578063da58c7d914610298578063f2fde38b146102cb578063fe62ade0146102e757610100565b80636428a48614610206578063715018a6146102225780638da5cb5b1461022c57806398c079381461024a57610100565b80633eb76b9c116100d35780633eb76b9c146101945780634a2a1b98146101b05780634a2a84c5146101cc5780635c46f876146101e857610100565b806306f0d4f61461010557806306fdde03146101255780632d35a8a2146101435780633477ee2e14610161575b600080fd5b61010d610317565b60405161011c93929190611d87565b60405180910390f35b61012d6105bf565b60405161013a9190611ada565b60405180910390f35b61014b61064d565b6040516101589190611c3c565b60405180910390f35b61017b600480360381019061017691906118c3565b610653565b60405161018b9493929190611dc5565b60405180910390f35b6101ae60048036038101906101a991906118c3565b61072b565b005b6101ca60048036038101906101c591906118c3565b610d29565b005b6101e660048036038101906101e1919061186f565b610dad565b005b6101f0611017565b6040516101fd9190611c3c565b60405180910390f35b610220600480360381019061021b919061182e565b61101d565b005b61022a611263565b005b61023461139d565b6040516102419190611abf565b60405180910390f35b6102526113c6565b60405161025f9190611c3c565b60405180910390f35b610282600480360381019061027d9190611805565b6113cc565b60405161028f9190611c3c565b60405180910390f35b6102b260048036038101906102ad91906118c3565b6113e4565b6040516102c29493929190611c57565b60405180910390f35b6102e560048036038101906102e09190611805565b6114c9565b005b61030160048036038101906102fc9190611805565b611672565b60405161030e9190611c3c565b60405180910390f35b6000806060610324611692565b6003600060018152602001908152602001600020604051806080016040529081600082015481526020016001820154815260200160028201805461036790611f1f565b80601f016020809104026020016040519081016040528092919081815260200182805461039390611f1f565b80156103e05780601f106103b5576101008083540402835291602001916103e0565b820191906000526020600020905b8154815290600101906020018083116103c357829003601f168201915b505050505081526020016003820160009054906101000a900473ffffffffffffffffffffffffffffffffffffffff1673ffffffffffffffffffffffffffffffffffffffff1673ffffffffffffffffffffffffffffffffffffffff168152505090506000600190505b60065481116105a357816020015160036000838152602001908152602001600020600101541115610590576003600082815260200190815260200160002060405180608001604052908160008201548152602001600182015481526020016002820180546104b590611f1f565b80601f01602080910402602001604051908101604052809291908181526020018280546104e190611f1f565b801561052e5780601f106105035761010080835404028352916020019161052e565b820191906000526020600020905b81548152906001019060200180831161051157829003601f168201915b505050505081526020016003820160009054906101000a900473ffffffffffffffffffffffffffffffffffffffff1673ffffffffffffffffffffffffffffffffffffffff1673ffffffffffffffffffffffffffffffffffffffff168152505091505b808061059b90611f82565b915050610448565b5080600001518160200151826040015193509350935050909192565b600180546105cc90611f1f565b80601f01602080910402602001604051908101604052809291908181526020018280546105f890611f1f565b80156106455780601f1061061a57610100808354040283529160200191610645565b820191906000526020600020905b81548152906001019060200180831161062857829003601f168201915b505050505081565b60065481565b600360205280600052604060002060009150905080600001549080600101549080600201805461068290611f1f565b80601f01602080910402602001604051908101604052809291908181526020018280546106ae90611f1f565b80156106fb5780601f106106d0576101008083540402835291602001916106fb565b820191906000526020600020905b8154815290600101906020018083116106de57829003601f168201915b5050505050908060030160009054906101000a900473ffffffffffffffffffffffffffffffffffffffff16905084565b6000600560003373ffffffffffffffffffffffffffffffffffffffff1673ffffffffffffffffffffffffffffffffffffffff16815260200190815260200160002054905060008114156107b3576040517f08c379a00000000000000000000000000000000000000000000000000000000081526004016107aa90611b1c565b60405180910390fd5b600082116107f6576040517f08c379a00000000000000000000000000000000000000000000000000000000081526004016107ed90611b9c565b60405180910390fd5b600073ffffffffffffffffffffffffffffffffffffffff166003600084815260200190815260200160002060030160009054906101000a900473ffffffffffffffffffffffffffffffffffffffff1673ffffffffffffffffffffffffffffffffffffffff16141561089c576040517f08c379a000000000000000000000000000000000000000000000000000000000815260040161089390611b9c565b60405180910390fd5b6008544210156108e1576040517f08c379a00000000000000000000000000000000000000000000000000000000081526004016108d890611bfc565b60405180910390fd5b600060026000838152602001908152602001600020604051806080016040529081600082015481526020016001820160009054906101000a900460ff1615151515815260200160028201805461093690611f1f565b80601f016020809104026020016040519081016040528092919081815260200182805461096290611f1f565b80156109af5780601f10610984576101008083540402835291602001916109af565b820191906000526020600020905b81548152906001019060200180831161099257829003601f168201915b505050505081526020016003820160009054906101000a900473ffffffffffffffffffffffffffffffffffffffff1673ffffffffffffffffffffffffffffffffffffffff1673ffffffffffffffffffffffffffffffffffffffff16815250509050600015158160200151151514610a5b576040517f08c379a0000000000000000000000000000000000000000000000000000000008152600401610a5290611bbc565b60405180910390fd5b600181602001901515908115158152505080600260008481526020019081526020016000206000820151816000015560208201518160010160006101000a81548160ff0219169083151502179055506040820151816002019080519060200190610ac69291906116d0565b5060608201518160030160006101000a81548173ffffffffffffffffffffffffffffffffffffffff021916908373ffffffffffffffffffffffffffffffffffffffff1602179055509050506000600360008581526020019081526020016000206040518060800160405290816000820154815260200160018201548152602001600282018054610b5590611f1f565b80601f0160208091040260200160405190810160405280929190818152602001828054610b8190611f1f565b8015610bce5780601f10610ba357610100808354040283529160200191610bce565b820191906000526020600020905b815481529060010190602001808311610bb157829003601f168201915b505050505081526020016003820160009054906101000a900473ffffffffffffffffffffffffffffffffffffffff1673ffffffffffffffffffffffffffffffffffffffff1673ffffffffffffffffffffffffffffffffffffffff16815250509050806020018051809190610c4190611f82565b81525050806003600086815260200190815260200160002060008201518160000155602082015181600101556040820151816002019080519060200190610c899291906116d0565b5060608201518160030160006101000a81548173ffffffffffffffffffffffffffffffffffffffff021916908373ffffffffffffffffffffffffffffffffffffffff1602179055509050507fd171c956bd95c24ae8b5faa7220ececabad442832ff8e8eed088fe7eb66f7363826000015183602001518460400151338560000151604051610d1b959493929190611ca3565b60405180910390a150505050565b42811015610d6c576040517f08c379a0000000000000000000000000000000000000000000000000000000008152600401610d6390611b3c565b60405180910390fd5b806008819055507f2b3ae71801cef2c89322be1fcc2e9d83cd09032a94287857afa4fa72251d558a81604051610da29190611c3c565b60405180910390a150565b610db561168a565b73ffffffffffffffffffffffffffffffffffffffff16610dd361139d565b73ffffffffffffffffffffffffffffffffffffffff1614610e29576040517f08c379a0000000000000000000000000000000000000000000000000000000008152600401610e2090611bdc565b60405180910390fd5b6000600460008373ffffffffffffffffffffffffffffffffffffffff1673ffffffffffffffffffffffffffffffffffffffff1681526020019081526020016000205414610eab576040517f08c379a0000000000000000000000000000000000000000000000000000000008152600401610ea290611b7c565b60405180910390fd5b60066000815480929190610ebe90611f82565b919050555060405180608001604052806006548152602001600081526020018381526020018273ffffffffffffffffffffffffffffffffffffffff1681525060036000600654815260200190815260200160002060008201518160000155602082015181600101556040820151816002019080519060200190610f429291906116d0565b5060608201518160030160006101000a81548173ffffffffffffffffffffffffffffffffffffffff021916908373ffffffffffffffffffffffffffffffffffffffff160217905550905050600654600460008373ffffffffffffffffffffffffffffffffffffffff1673ffffffffffffffffffffffffffffffffffffffff168152602001908152602001600020819055507f215b7e673452bf74f22ff23e0ceae9bb39a67a2ab41e8213510b47f2dafda7db6006546000848460405161100b9493929190611cfd565b60405180910390a15050565b60085481565b6000600560003373ffffffffffffffffffffffffffffffffffffffff1673ffffffffffffffffffffffffffffffffffffffff168152602001908152602001600020541461109f576040517f08c379a000000000000000000000000000000000000000000000000000000000815260040161109690611b5c565b60405180910390fd5b60085442106110e3576040517f08c379a00000000000000000000000000000000000000000000000000000000081526004016110da90611c1c565b60405180910390fd5b600760008154809291906110f690611f82565b9190505550604051806080016040528060075481526020016000151581526020018281526020013373ffffffffffffffffffffffffffffffffffffffff168152506002600060075481526020019081526020016000206000820151816000015560208201518160010160006101000a81548160ff02191690831515021790555060408201518160020190805190602001906111929291906116d0565b5060608201518160030160006101000a81548173ffffffffffffffffffffffffffffffffffffffff021916908373ffffffffffffffffffffffffffffffffffffffff160217905550905050600754600560003373ffffffffffffffffffffffffffffffffffffffff1673ffffffffffffffffffffffffffffffffffffffff168152602001908152602001600020819055507f4f2c2b3d3a0a44cf2caecb9bf32943fcf10b476b25da60a8c36e23f5d04f261f600754823360405161125893929190611d49565b60405180910390a150565b61126b61168a565b73ffffffffffffffffffffffffffffffffffffffff1661128961139d565b73ffffffffffffffffffffffffffffffffffffffff16146112df576040517f08c379a00000000000000000000000000000000000000000000000000000000081526004016112d690611bdc565b60405180910390fd5b600073ffffffffffffffffffffffffffffffffffffffff1660008054906101000a900473ffffffffffffffffffffffffffffffffffffffff1673ffffffffffffffffffffffffffffffffffffffff167f8be0079c531659141344cd1fd0a4f28419497f9722a3daafe3b4186f6b6457e060405160405180910390a360008060006101000a81548173ffffffffffffffffffffffffffffffffffffffff021916908373ffffffffffffffffffffffffffffffffffffffff160217905550565b60008060009054906101000a900473ffffffffffffffffffffffffffffffffffffffff16905090565b60075481565b60046020528060005260406000206000915090505481565b60026020528060005260406000206000915090508060000154908060010160009054906101000a900460ff169080600201805461142090611f1f565b80601f016020809104026020016040519081016040528092919081815260200182805461144c90611f1f565b80156114995780601f1061146e57610100808354040283529160200191611499565b820191906000526020600020905b81548152906001019060200180831161147c57829003601f168201915b5050505050908060030160009054906101000a900473ffffffffffffffffffffffffffffffffffffffff16905084565b6114d161168a565b73ffffffffffffffffffffffffffffffffffffffff166114ef61139d565b73ffffffffffffffffffffffffffffffffffffffff1614611545576040517f08c379a000000000000000000000000000000000000000000000000000000000815260040161153c90611bdc565b60405180910390fd5b600073ffffffffffffffffffffffffffffffffffffffff168173ffffffffffffffffffffffffffffffffffffffff1614156115b5576040517f08c379a00000000000000000000000000000000000000000000000000000000081526004016115ac90611afc565b60405180910390fd5b8073ffffffffffffffffffffffffffffffffffffffff1660008054906101000a900473ffffffffffffffffffffffffffffffffffffffff1673ffffffffffffffffffffffffffffffffffffffff167f8be0079c531659141344cd1fd0a4f28419497f9722a3daafe3b4186f6b6457e060405160405180910390a3806000806101000a81548173ffffffffffffffffffffffffffffffffffffffff021916908373ffffffffffffffffffffffffffffffffffffffff16021790555050565b60056020528060005260406000206000915090505481565b600033905090565b6040518060800160405280600081526020016000815260200160608152602001600073ffffffffffffffffffffffffffffffffffffffff1681525090565b8280546116dc90611f1f565b90600052602060002090601f0160209004810192826116fe5760008555611745565b82601f1061171757805160ff1916838001178555611745565b82800160010185558215611745579182015b82811115611744578251825591602001919060010190611729565b5b5090506117529190611756565b5090565b5b8082111561176f576000816000905550600101611757565b5090565b600061178661178184611e36565b611e11565b90508281526020810184848401111561179e57600080fd5b6117a9848285611edd565b509392505050565b6000813590506117c081612275565b92915050565b600082601f8301126117d757600080fd5b81356117e7848260208601611773565b91505092915050565b6000813590506117ff8161228c565b92915050565b60006020828403121561181757600080fd5b6000611825848285016117b1565b91505092915050565b60006020828403121561184057600080fd5b600082013567ffffffffffffffff81111561185a57600080fd5b611866848285016117c6565b91505092915050565b6000806040838503121561188257600080fd5b600083013567ffffffffffffffff81111561189c57600080fd5b6118a8858286016117c6565b92505060206118b9858286016117b1565b9150509250929050565b6000602082840312156118d557600080fd5b60006118e3848285016117f0565b91505092915050565b6118f581611e83565b82525050565b61190481611e95565b82525050565b61191381611ecb565b82525050565b600061192482611e67565b61192e8185611e72565b935061193e818560208601611eec565b61194781612058565b840191505092915050565b600061195f602683611e72565b915061196a82612069565b604082019050919050565b6000611982601483611e72565b915061198d826120b8565b602082019050919050565b60006119a5602983611e72565b91506119b0826120e1565b604082019050919050565b60006119c8601483611e72565b91506119d382612130565b602082019050919050565b60006119eb601883611e72565b91506119f682612159565b602082019050919050565b6000611a0e601883611e72565b9150611a1982612182565b602082019050919050565b6000611a31601383611e72565b9150611a3c826121ab565b602082019050919050565b6000611a54602083611e72565b9150611a5f826121d4565b602082019050919050565b6000611a77602c83611e72565b9150611a82826121fd565b604082019050919050565b6000611a9a601883611e72565b9150611aa58261224c565b602082019050919050565b611ab981611ec1565b82525050565b6000602082019050611ad460008301846118ec565b92915050565b60006020820190508181036000830152611af48184611919565b905092915050565b60006020820190508181036000830152611b1581611952565b9050919050565b60006020820190508181036000830152611b3581611975565b9050919050565b60006020820190508181036000830152611b5581611998565b9050919050565b60006020820190508181036000830152611b75816119bb565b9050919050565b60006020820190508181036000830152611b95816119de565b9050919050565b60006020820190508181036000830152611bb581611a01565b9050919050565b60006020820190508181036000830152611bd581611a24565b9050919050565b60006020820190508181036000830152611bf581611a47565b9050919050565b60006020820190508181036000830152611c1581611a6a565b9050919050565b60006020820190508181036000830152611c3581611a8d565b9050919050565b6000602082019050611c516000830184611ab0565b92915050565b6000608082019050611c6c6000830187611ab0565b611c7960208301866118fb565b8181036040830152611c8b8185611919565b9050611c9a60608301846118ec565b95945050505050565b600060a082019050611cb86000830188611ab0565b611cc560208301876118fb565b8181036040830152611cd78186611919565b9050611ce660608301856118ec565b611cf36080830184611ab0565b9695505050505050565b6000608082019050611d126000830187611ab0565b611d1f602083018661190a565b8181036040830152611d318185611919565b9050611d4060608301846118ec565b95945050505050565b6000606082019050611d5e6000830186611ab0565b8181036020830152611d708185611919565b9050611d7f60408301846118ec565b949350505050565b6000606082019050611d9c6000830186611ab0565b611da96020830185611ab0565b8181036040830152611dbb8184611919565b9050949350505050565b6000608082019050611dda6000830187611ab0565b611de76020830186611ab0565b8181036040830152611df98185611919565b9050611e0860608301846118ec565b95945050505050565b6000611e1b611e2c565b9050611e278282611f51565b919050565b6000604051905090565b600067ffffffffffffffff821115611e5157611e50612029565b5b611e5a82612058565b9050602081019050919050565b600081519050919050565b600082825260208201905092915050565b6000611e8e82611ea1565b9050919050565b60008115159050919050565b600073ffffffffffffffffffffffffffffffffffffffff82169050919050565b6000819050919050565b6000611ed682611ec1565b9050919050565b82818337600083830152505050565b60005b83811015611f0a578082015181840152602081019050611eef565b83811115611f19576000848401525b50505050565b60006002820490506001821680611f3757607f821691505b60208210811415611f4b57611f4a611ffa565b5b50919050565b611f5a82612058565b810181811067ffffffffffffffff82111715611f7957611f78612029565b5b80604052505050565b6000611f8d82611ec1565b91507fffffffffffffffffffffffffffffffffffffffffffffffffffffffffffffffff821415611fc057611fbf611fcb565b5b600182019050919050565b7f4e487b7100000000000000000000000000000000000000000000000000000000600052601160045260246000fd5b7f4e487b7100000000000000000000000000000000000000000000000000000000600052602260045260246000fd5b7f4e487b7100000000000000000000000000000000000000000000000000000000600052604160045260246000fd5b6000601f19601f8301169050919050565b7f4f776e61626c653a206e6577206f776e657220697320746865207a65726f206160008201527f6464726573730000000000000000000000000000000000000000000000000000602082015250565b7f566f746572206e6f742072656769737465726564000000000000000000000000600082015250565b7f54696d65206d75737420626520686967686572207468616e207468652063757260008201527f72656e742074696d650000000000000000000000000000000000000000000000602082015250565b7f566f74657220616c726561647920657869737473000000000000000000000000600082015250565b7f43616e64696461746520616c7265616479206578697374730000000000000000600082015250565b7f43616e64696461746520646f6573206e6f742065786973740000000000000000600082015250565b7f566f74657220616c726561647920766f74656400000000000000000000000000600082015250565b7f4f776e61626c653a2063616c6c6572206973206e6f7420746865206f776e6572600082015250565b7f456c656374696f6e2068617320656e6465642c20566f7465732063616e6e6f7460008201527f2062652061636365707465640000000000000000000000000000000000000000602082015250565b7f526567697374726174696f6e732061726520636c6f7365640000000000000000600082015250565b61227e81611e83565b811461228957600080fd5b50565b61229581611ec1565b81146122a057600080fd5b5056fea2646970667358221220402d1e91ae3326ab3125582cce780ddd5521d7a6bc9a6e116632c6b77014062d64736f6c63430008040033",
  "immutableReferences": {},
  "source": "pragma solidity ^0.8.0;\n\nimport \"@openzeppelin/contracts/access/Ownable.sol\";\n\ncontract Election is Ownable {\n    string public name = \"Election\";\n\n    struct Candidate {\n        uint256 id;\n        uint256 voteCount;\n        string name;\n        address candidate;\n    }\n\n    struct Voter {\n        uint256 id;\n        bool voted;\n        string name;\n        address voter;\n    }\n\n    mapping(uint256 => Voter) public voters;\n    mapping(uint256 => Candidate) public candidates;\n\n    mapping(address => uint256) public addressToCandidateId;\n    mapping(address => uint256) public addressToVoterId;\n\n    event CandidateAdded(\n        uint256 id,\n        uint256 voteCount,\n        string name,\n        address candidate\n    );\n\n    event VoterRegistered(uint256 id, string name, address voter);\n\n    event ElectionDateUpdated(uint256 time);\n\n    event VoteCasted(\n        uint256 id,\n        bool voted,\n        string name,\n        address voter,\n        uint256 candidateId\n    );\n\n    event Log(uint256 data);\n\n    uint256 public candidatesCount;\n    uint256 public votersCount;\n\n    uint256 public electionDate;\n\n    function addCandidate(string memory _name, address _candidate)\n        public\n        onlyOwner\n    {\n        require(\n            addressToCandidateId[_candidate] == 0,\n            \"Candidate already exists\"\n        );\n        candidatesCount++;\n        candidates[candidatesCount] = Candidate(\n            candidatesCount,\n            0,\n            _name,\n            _candidate\n        );\n        addressToCandidateId[_candidate] = candidatesCount;\n        emit CandidateAdded(candidatesCount, 0, _name, _candidate);\n    }\n\n    function setElectionDate(uint256 _time) public {\n        require(\n            _time >= block.timestamp,\n            \"Time must be higher than the current time\"\n        );\n        electionDate = _time;\n        emit ElectionDateUpdated(_time);\n    }\n\n    function registerVoter(string memory _name) public {\n        require(addressToVoterId[msg.sender] == 0, \"Voter already exists\");\n        require(block.timestamp < electionDate, \"Registrations are closed\");\n        votersCount++;\n        voters[votersCount] = Voter(votersCount, false, _name, msg.sender);\n        addressToVoterId[msg.sender] = votersCount;\n        emit VoterRegistered(votersCount, _name, msg.sender);\n    }\n\n    function castVote(uint256 _candidateId) public {\n        uint256 voterId = addressToVoterId[msg.sender];\n        require(voterId != 0, \"Voter not registered\");\n        require(_candidateId > 0, \"Candidate does not exist\");\n        require(\n            candidates[_candidateId].candidate != address(0),\n            \"Candidate does not exist\"\n        );\n        require(\n            block.timestamp >= electionDate,\n            \"Election has ended, Votes cannot be accepted\"\n        );\n        Voter memory voter = voters[voterId];\n        require(voter.voted == false, \"Voter already voted\");\n        voter.voted = true;\n        voters[voterId] = voter;\n        Candidate memory candidate = candidates[_candidateId];\n        candidate.voteCount++;\n        candidates[_candidateId] = candidate;\n        emit VoteCasted(\n            voter.id,\n            voter.voted,\n            voter.name,\n            msg.sender,\n            candidate.id\n        );\n    }\n\n    function getWinnerCandidate()\n        public\n        view\n        returns (uint256 id, uint voteCount, string memory name)\n    {\n        Candidate memory winner;\n        winner = candidates[1];\n        for (uint256 i = 1; i <= candidatesCount; i++) {\n\t\t\t\t\tif (candidates[i].voteCount > winner.voteCount)\n\t\t\t\t\t\twinner = candidates[i];\n\t\t\t\t}\n        return (winner.id, winner.voteCount, winner.name);\n    }\n}\n",
  "sourcePath": "/Users/zlayine/Desktop/election/src/contracts/Election.sol",
  "compiler": {
    "name": "solc",
    "version": "0.8.4+commit.c7e474f2.Emscripten.clang"
  },
  "schemaVersion": "3.2.3",
  "updatedAt": "2021-06-01T11:04:35.923Z",
  "networkType": "ethereum",
  "devdoc": {
    "kind": "dev",
    "methods": {
      "owner()": {
        "details": "Returns the address of the current owner."
      },
      "renounceOwnership()": {
        "details": "Leaves the contract without owner. It will not be possible to call `onlyOwner` functions anymore. Can only be called by the current owner. NOTE: Renouncing ownership will leave the contract without an owner, thereby removing any functionality that is only available to the owner."
      },
      "transferOwnership(address)": {
        "details": "Transfers ownership of the contract to a new account (`newOwner`). Can only be called by the current owner."
      }
    },
    "version": 1
  },
  "userdoc": {
    "kind": "user",
    "methods": {},
    "version": 1
  }
}